:020000040800F2
:1000000058070020890100084F1200084D0E000813
:100010004D1200088F020008611400080000000063
:100020000000000000000000000000004113000874
:10003000910200080000000051120008431300085C
:10004000A3010008A3010008A3010008A301000800
:10005000A3010008A3010008A3010008A3010008F0
:10006000A3010008A3010008A3010008A3010008E0
:10007000A3010008A3010008A3010008A3010008D0
:10008000A3010008A3010008A3010008A3010008C0
:10009000A3010008A3010008A3010008A3010008B0
:1000A000A3010008A3010008A3010008A3010008A0
:1000B000A3010008A3010008A3010008A301000890
:1000C000A3010008A3010008A3010008A301000880
:1000D000A3010008A3010008A3010008A301000870
:1000E000A3010008A3010008A301000800F002F822
:1000F00000F03AF80AA090E8000C82448344AAF188
:100100000107DA4501D100F02FF8AFF2090EBAE885
:100110000F0013F0010F18BFFB1A43F0010318473B
:100120001C1400003C140000103A24BF78C878C1A9
:10013000FAD8520724BF30C830C144BF04680C60ED
:10014000704700000023002400250026103A28BF35
:1001500078C1FBD8520728BF30C148BF0B60704739
:100160001FB51FBD10B510BD00F058F81146FFF7C0
:10017000F7FF01F087F900F076F803B4FFF7F2FF1C
:1001800003BC00F07DF8000009488047094800479B
:10019000FEE7FEE7FEE7FEE7FEE7FEE7FEE7FEE737
:1001A000FEE7FEE704480549054A064B7047000094
:1001B000A5130008ED000008580100205807002092
:1001C00058030020580300204FF0000200B51346EA
:1001D00094469646203922BFA0E80C50A0E80C5067
:1001E000B1F12001BFF4F7AF090728BFA0E80C5018
:1001F00048BF0CC05DF804EB890028BF40F8042B11
:1002000008BF704748BF20F8022B11F0804F18BF7D
:1002100000F8012B7047704770477047754600F033
:100220002BF8AE4605006946534620F00700854688
:1002300018B020B5FFF7B6FFBDE820404FF000062C
:100240004FF000074FF000084FF0000B21F00701BE
:10025000AC46ACE8C009ACE8C009ACE8C009ACE801
:10026000C0098D46704710B50446AFF300802046A4
:10027000BDE81040FFF781BF00487047F80000203C
:1002800001491820ABBEFEE7260002007047FEE7DA
:100290007047000070B5044600F004F90546601C84
:1002A00002D004480078044400F0FCF8401BA0424F
:1002B000FAD370BD000000202DE9F84FDFF8B891A7
:1002C0000024A9F1040B23460F2709F1040AABF11E
:1002D000040EC9E00125A5402A40AA427DD1674EFF
:1002E000D1F804C0ACEB0608B44532D014DCBCF144
:1002F000030F3AD009DCBCF1000F2AD0BCF1010F8A
:100300001CD0BCF1020F31D11DE0BCF1110F17D090
:10031000BCF1120F2AD119E0B8F5881F19D006DCFC
:10032000B8F5803F15D0B8F5801F1FD111E0B8F5A2
:10033000001F0ED0B8F5041F18D10AE0CB6815E0F5
:10034000CB681B1D12E0CB6808330FE0CB680C3381
:100350000CE08B682BB1012B4FF0080303D04561F3
:1003600004E0042302E0056100E00023FF2A01D835
:10037000064601E000F104064FEA840501D9A5F123
:100380002005D6F8008007FA05FC28EA0C0803FAD5
:1003900005F548EA0508C6F800804D68ED0062D50D
:1003A000374DAE6946F00106AE61AD6924F0030633
:1003B00005F001050095334D06EB050CDCF80850FF
:1003C000A607360F07FA06F825EA0805DFF8B88011
:1003D000404503D14FF0000817E044E0DFF8AC805F
:1003E000404502D14FF001080FE0DFF8A4804045FE
:1003F00002D14FF0020808E0DFF89880404502D1B2
:100400004FF0030801E04FF0040808FA06F848EA44
:100410000508CCF808804D68D9F80060ED024D461B
:1004200001D5164300E096432E604D68DAF800606F
:10043000AD02554601D5164300E096432E604D6847
:10044000DBF80060AD035D4601D5164300E096433E
:100450002E604D68DEF80060ED03754601D5164349
:1004600000E096432E60641C0D682A46E5407FF448
:1004700031AFBDE8F88F0000080401400000111002
:10048000001002400000014000080140000C014043
:1004900000100140001401400AB1016170470904D5
:1004A000FBE7000001488068704700000000002062
:1004B0000248816802781144816070470000002082
:1004C000074810B5016841F010010160032000F0F9
:1004D00067F80F2000F006F800F024F8002010BDA7
:1004E0000020024070B50D4D04464FF47A71287813
:1004F000B1FBF0F00A490968B1FBF0F000F009FC2B
:1005000048B9102C07D200222146501E00F028F8CE
:1005100000206C6070BD012070BD00000000002054
:100520000C0000200C4808B5816941F0010181618F
:10053000816901F001010091C16941F08051C161FF
:10054000C06900F0805000900448416821F0E061EB
:1005500041F00071416008BD001002400000014000
:10056000F0B40E4B1B680C46C3F30223C3F107051E
:10057000042D00D90425191D072901D2002300E00C
:10058000DB1E012606FA05F1491E214099409E40D6
:10059000761E16403143F0BC00F063BF0CED00E066
:1005A000064900F0070208684FF6FF03184040EACA
:1005B0000220034A10430860704700000CED00E081
:1005C0000000FA052DE9F0470F46050061D0434EC3
:1005D000306800F00700B84209D2306820F0070008
:1005E00038433060306800F00700B84251D12868C5
:1005F0003B4C810712D5400703D5606840F4E060AA
:1006000060602878000703D5606840F4605060603F
:100610006068A96820F0F000084360602878C0078F
:1006200028D06868012810D02168022810D08907D6
:1006300000292EDA616821F0030101436160FFF7B0
:1006400031FF804641F288390DE021688903EFE7E8
:100650008901EDE7FFF726FFA0EB0801494502D924
:100660000320BDE8F0876068696800F00C00B0EB1B
:10067000810FEFD1306800F00700B8420BD9306825
:1006800020F0070038433060306800F00700B842BF
:1006900001D00120E5E72878400705D56068E968C2
:1006A00020F4E060084360602878000706D56068A1
:1006B000296920F4605040EAC100606000F038F819
:1006C0006168084AC1F30311515CC84006490860DB
:1006D00006480068FFF706FF0020C2E7002002403E
:1006E00000100240221500080C0000200400002029
:1006F0000448054900684968044AC1F30221515C75
:10070000C84070470C00002000100240321500085D
:100710000448054900684968044AC1F3C221515C94
:10072000C84070470C00002000100240321500083D
:100730000E4A51680E4801F00C03042B11D0082B0F
:100740000FD10C48C1F38343C903C05C0AD551687B
:10075000084AC1F34041921E515C054A5043B0FB28
:10076000F1F0704704494843704700000010024010
:1007700000127A001215000800093D002DE9F84F1B
:10078000040070D02078C04DC00749D06868C0F31D
:100790008100012807D06868C0F38100022809D1D0
:1007A0006868C00306D52868800339D560680028CA
:1007B000E7D035E06068B0F5803F0BD010B1B0F500
:1007C000A02F11D0286820F480302860286820F4F9
:1007D000802002E0286840F480302860606890B192
:1007E000FFF760FE06460AE0286840F48020286093
:1007F000F0E700BFFFF756FE801B642873D8286817
:100800008003F7D50CE0FFF74DFE064605E000BF7C
:10081000FFF748FE801B6428F0D828688003F7D4CF
:1008200020789A4E80074FF001094FF0000839D523
:10083000686810F00C0F07D06868C0F381000228C8
:1008400009D16868C00306D42868800714D52069D8
:10085000012808D110E02069B0B1C6F80090FFF778
:1008600021FE074605E00AE1FFF71CFEC01B022837
:10087000C4D828688007F7D52868616920F0F80097
:1008800040EAC10028600DE0C6F80080FFF70AFECC
:10089000074604E0FFF706FEC01B022823D828689D
:1008A0008007F7D4207800072CD57948A169D9B101
:1008B000C0F80090FFF7F6FD074604E0FFF7F2FDF1
:1008C000C01B02280FD8686A8007F7D571484FF41B
:1008D000FA510068B0FBF1F0009000BF0098411E93
:1008E0000091FAD20EE080E0C0F80080FFF7DAFD58
:1008F000074604E0FFF7D6FDC01B022875D8686ADA
:100900008007F7D42078400760D5E8690027C00049
:1009100008D4E86940F08050E861E869012700F0F8
:10092000805000905C480168C90513D40168834673
:1009300041F480710160FFF7B5FD824606E000BF1B
:10094000FFF7B0FDA0EB0A0064284ED8DBF80000EA
:10095000C005F5D5E06801280AD008B1052813D0F4
:10096000286A20F001002862286A20F0040002E0D2
:10097000286A40F001002862E06841F2883B98B1A3
:10098000FFF790FD82460BE0286A40F004002862E1
:10099000EEE700BFFFF786FDA0EB0A0159455AD8E4
:1009A000286A8007F6D50CE0FFF77CFD824605E05B
:1009B000FFF778FDA0EB0A0159454CD8286A80075B
:1009C000F6D41FB1E86920F08050E861E06988B38F
:1009D0006968C1F38101022944D00228C6F8608009
:1009E00004D0FFF75FFD044638E034E0FFF75AFD1E
:1009F000074604E0FFF756FDC01B02282BD82868E5
:100A00008001F7D4206AB0F5803F05D16868A168FD
:100A100020F4003008436860D4E90801084369689D
:100A200021F4741108436860C6F86090FFF73AFD3E
:100A3000044606E025E000BFFFF734FD001B022856
:100A400009D828688001F7D51BE000BFFFF72AFD11
:100A5000001B022802D90320BDE8F88F2868800116
:100A6000F4D40EE00128F7D06868226A00F48031DF
:100A7000914204D1616A00F47010884201D00120D3
:100A8000EAE70020E8E700000010024000004242D0
:100A9000800442420C0000200070004070B5040049
:100AA00009D0606A002540B125616561A56294F8AE
:100AB000510040B10CE0012070BD6068B0F5827F4C
:100AC000F4D0E561F2E784F85050204600F040F899
:100AD000022084F851002068016821F04001016083
:100AE000A088218900F4827001F404410843A1899F
:100AF00001F400610843217C01F002010843217DDB
:100B000001F001010843218B01F400710843217FAA
:100B100001F03801084394F8201001F080010843E7
:100B2000218D01F40051084321680860A069042167
:100B300001EA1040216848602068C16921F4006121
:100B4000C1616565012084F85100002070BD00007E
:100B500000B585B0002100910191029103910068D8
:100B60000F4988421AD10F48816941F4805181614F
:100B7000816901F480510491816941F0040181612E
:100B80008069694600F004000490A02000900220D3
:100B90000190032003900448FFF78EFB05B000BDD1
:100BA0000030014000100240000801402DE9F84FDC
:100BB000984616468A460446FFF774FC814694F828
:100BC000510001281ED1BAF1000F73D0002E71D050
:100BD00094F85000012815D0012784F850700320A4
:100BE00084F8510000256565C4F830A0A686E68625
:100BF000A563A587E58765642564A068B0F5004F07
:100C000003D00CE00220BDE8F88F2068016821F0D5
:100C1000400101602068016841F480410160206862
:100C20000168490603D4016841F040010160E068B1
:100C3000B0F5006F606803D048B3012E27D047E0BD
:100C400008B1012E1FD1206B21680088C86006E022
:100C500020688168890709D5216B0988C160206BEC
:100C6000801C2063E08E401EE0860CE0FFF71AFC3B
:100C7000A0EB0901414503D3B8F1FF3F03D035E0B4
:100C8000B8F1000F32D0E08E0028E1D123E0206BD4
:100C900021680078087306E02068816889070AD512
:100CA000216B09780173206B401C2063E08E401E8D
:100CB000E0860DE02BE0FFF7F5FBA0EB09014145D5
:100CC00003D3B8F1FF3F03D010E0B8F1000F0DD00F
:100CD000E08E0028E0D14A464146204600F0B9FAAD
:100CE00008B120206065A06830B109E084F8517037
:100CF00084F85050032086E72068C168806800901F
:100D000084F8517004F8505F60680028F3D0012027
:100D100079E710B5401EB0F1807F01D3012010BDEE
:100D20004FF0E02460610F21601700F09AFB002073
:100D3000A06107202061002010BD70B5040004D020
:100D400094F84100002510B106E0012070BD84F840
:100D50004050204600F024F8242084F84100206808
:100D6000C16821F40051C160204600F01DFB2068DD
:100D7000016921F4904101612068416921F02A0153
:100D800041612068C16841F40051C1606564202060
:100D900084F8410084F842006563002070BD0000C3
:100DA00070B586B000240094019402940394234EFD
:100DB0000368234902200322224DB34219D18B69D3
:100DC00043F480438B618B6903F4804304938B6904
:100DD00043F004038B618969039201F004010491DB
:100DE0000102CDE9001069462846FFF765FA28158B
:100DF0001BE0154EB3421FD1CB6943F40033CB61E6
:100E0000CB6903F4003304938B6943F004038B61D3
:100E10008969039201F0040104910421CDE90010D5
:100E200069462846FFF748FA0820CDE900046946DC
:100E300028460294FFF740FA06B070BD0038014022
:100E4000001002400008014000440040FEE700009E
:100E5000012202210148FFF71FBB0000000C0140E6
:100E60002DE9F041ADF5007D1E464FF4A073869D3F
:100E70001446984241D2F0293FD20219521E9A429A
:100E800002DBC0F5A07294B28A19521EF02A02DB6E
:100E9000C1F1F00296B28A19521E93B20219521E83
:100EA00092B200F019F9744300204FF4807669463D
:100EB000EAB22B0A01F8102001EB4005401C80B279
:100EC0006B70B042F6D300F0FFF8FFF7C1FF4FF6AA
:100ED000FF774FF0FF380CE0B44201D9354600E00F
:100EE000254607EA4502434669460648FFF75EFE87
:100EF000641B002CF0D100F01BF90DF5007DBDE85E
:100F0000F08100001000002008B500210090F023BF
:100F10004FF4A0720846FFF7A3FF08BD30B55C4D43
:100F20004FF4806491B0002221462846FFF7B4FABE
:100F30001420FFF7AFF9012221462846FFF7ACFA4B
:100F40009620FFF7A7F9EF2000F0FAF851A003214F
:100F50000068029002A800F009F9CF2000F0F0F834
:100F60004DA003210068039003A800F0FFF8ED20D6
:100F700000F0E6F849A004210068049004A800F0FD
:100F8000F5F8E82000F0DCF845A0032100680590A2
:100F900005A800F0EBF8CB2000F0D2F841A1D1E990
:100FA0000001CDE900010521684600F0DFF8F720D7
:100FB00000F0C6F83DA001210068069006A800F0E8
:100FC000D5F8EA2000F0BCF800200790022107A81D
:100FD00000F0CCF8C02000F0B3F835A00121006883
:100FE000089008A800F0C2F8C12000F0A9F831A0CC
:100FF00001210068099009A800F0B8F8C52000F0A8
:101000009FF82DA0022100680A900AA800F0AEF80F
:10101000C72000F095F829A0012100680B900BA8CB
:1010200000F0A4F8362000F08BF848208DF830004E
:1010300001210CA800F09AF83A2000F081F8552020
:101040008DF8340001210DA800F090F8B12000F0D7
:1010500077F81BA0022100680E900EA800F086F819
:10106000B62000F06DF817A0032100680F900FA8BC
:1010700000F07CF8112000F063F87820FFF70AF9FF
:10108000292000F05DF81420FFF704F911B030BDFD
:10109000000C01400380020000C130006403128193
:1010A00085007800392C0034020000002000000088
:1010B00023000000100000003E2800008600000011
:1010C0000018000008822700002201210148FFF7D4
:1010D000E3B90000000C0140F8B507461C46154670
:1010E0000E462A2000F02CF8380A8DF800008DF802
:1010F0000170280A8DF802008DF80350042168461B
:1011000000F034F82B2000F01BF8300A8DF80000B6
:101110008DF80160200A8DF802008DF8034004214B
:10112000684600F023F82C2000F00AF8F8BD000013
:10113000012211460148FFF7AFB90000000C014041
:1011400001B5FFF7C1FF002202210648FFF7A4F90D
:101150004FF0FF33012269460348FFF727FDFFF7F1
:10116000E7FF08BD000C01401000002070B50C0026
:1011700005460ED0FFF7A8FFFFF76AFE4FF0FF33DA
:10118000224629460348FFF711FDBDE87040FFF7EE
:10119000CFBF70BD1000002070B586B00024184885
:1011A0000094019402940394816941F020018161CB
:1011B000816901F020010491816941F0040181619C
:1011C000816901F004010491816941F008018161A4
:1011D00080690C4E00F0080040F2034504900022A4
:1011E00029463046FFF758F901200095CDE9010462
:1011F0000220039069463046FFF75EF806B070BDE6
:1012000000100240000C01400F4810B50D4901606C
:101210004FF48271416000218160C1604FF400721F
:101220000161C0E905120822C0E90721416281621B
:101230000A21C162FFF732FC002801D072B6FEE736
:1012400010BD00000030014010000020FEE7FEE766
:101250007047F8B515460E460B460092044601222B
:10126000022100F011F840B93346002280212046C7
:10127000009500F009F8002804D0606D40F02000CF
:1012800060650320F8BD00002DE9F8431E46914635
:1012900088460446089DFFF705F9401B351AFFF7FD
:1012A00001F9074625480068C0F3CB30684338E0B1
:1012B000701C37D0FFF7F6F8C01BA84203D215B157
:1012C000009860B32CE02068416821F0E0014160A3
:1012D0006068B0F5827F0BD1A068B0F5004F02D0F6
:1012E000B0F5806F04D12068016821F040010160F1
:1012F000A06AB0F5005F09D12068016821F40051AF
:1013000001602068016841F400510160012084F807
:101310005100002084F850000320BDE8F883002528
:10132000401E00902068816838EA010004D0002146
:101330004945BDD10020F0E70121F9E70C0000206C
:101340007047FFF7B5B830B58FB028216846FEF773
:101350003BFF14210AA8FEF737FF01210804CDE95D
:1013600000100024029402250491CDE907504FF4A7
:10137000E01009906846FFF701FA08B172B6FEE77F
:101380000F20CDE90A054FF48060CDE90C40022121
:101390000AA80E94FFF716F9002801D072B6FEE7EE
:1013A0000FB030BD7047000070B504460068016999
:1013B000E26821F44051114301612169A0680843AA
:1013C000616908432168CA6841F20C639A43024389
:1013D000CA6020684169A26921F4407111434161EA
:1013E0001E492068884202D1FFF792F901E0FFF719
:1013F0007FF900EBC00101EB0012606864218000FE
:10140000B2FBF0F3B3FBF1F36FF018067343B2FBDA
:10141000F0F5B2FBF0F605EB8305322303EB05157F
:10142000B5FBF1F5B6FBF1F605F0F00505EB061599
:10143000B2FBF0F6B2FBF0F0B0FBF1F06FF0180287
:10144000504306EB800003EB0010B0FBF1F0216885
:1014500000F00F002844886070BD00000038014093
:10146000FEE70907090E002804DB00F1E02080F800
:101470000014704700F00F0000F1E02080F8141D08
:1014800070470000FFF71CF8FFF75DFFFFF784FED1
:10149000FFF7BAFE1B481A494FF4E13500240160FA
:1014A000C0E901540C26C460C0E904468461C461EB
:1014B000FFF743FC08B172B6FEE712481249483004
:1014C0000160C0E90154C460C0E904468461C4619C
:1014D000FFF733FC08B172B6FEE7012202210B4888
:1014E000FEF7DAFFFFF71AFD4FF478444FF4FA7570
:1014F0002046FFF709FD2846FEF7CCFEF8E700007E
:10150000003801406800002000440040000C014009
:10151000010202030405060708090A0B0C0D0E0F51
:101520001010000000000000000001020304060784
:101530000809000000000102030400005C15000817
:101540000000002010000000280100086C150008B1
:1015500010000020480700004401000801000000BE
:0C156000100000000000000000127A00E3
:04000005080000ED02
:00000001FF
