:020000040800F2
:10000000C806002089010008B30E00085F0D000833
:10001000B10E0008F50200080B10000800000000F7
:10002000000000000000000000000000A50F000814
:10003000F702000800000000B50E0008A70F000836
:10004000A3010008A3010008A3010008A301000800
:10005000A3010008A3010008A3010008A3010008F0
:10006000A3010008A3010008A3010008A3010008E0
:10007000A3010008A3010008A3010008A3010008D0
:10008000A3010008A3010008A3010008A3010008C0
:10009000A3010008A3010008A3010008A3010008B0
:1000A000A3010008A3010008A3010008A3010008A0
:1000B000A3010008A3010008A3010008A301000890
:1000C000A3010008A3010008A3010008A301000880
:1000D000A3010008A3010008A3010008A301000870
:1000E000A3010008A3010008A301000800F002F822
:1000F00000F03AF80AA090E8000C82448344AAF188
:100100000107DA4501D100F02FF8AFF2090EBAE885
:100110000F0013F0010F18BFFB1A43F0010318473B
:100120007012000090120000103A24BF78C878C105
:10013000FAD8520724BF30C830C144BF04680C60ED
:10014000704700000023002400250026103A28BF35
:1001500078C1FBD8520728BF30C148BF0B60704739
:100160001FB51FBD10B510BD00F08FF81146FFF789
:10017000F7FF00F0E1FF00F0ADF803B4FFF7F2FF86
:1001800003BC00F0B1F80000094880470948004767
:10019000FEE7FEE7FEE7FEE7FEE7FEE7FEE7FEE737
:1001A000FEE7FEE704480549054A064B7047000094
:1001B00009100008ED000008C8000020C806002053
:1001C000C8020020C802002010B5203AC0F00B8001
:1001D000B1E81850203AA0E81850B1E81850A0E84B
:1001E0001850BFF4F5AF5FEA027C24BFB1E81850A5
:1001F000A0E8185044BF18C918C0BDE810405FEA15
:10020000827C24BF51F8043B40F8043B08BF704790
:10021000D20728BF31F8023B48BF11F8012B28BF95
:1002200020F8023B48BF00F8012B70474FF0000256
:1002300000B5134694469646203922BFA0E80C50DC
:10024000A0E80C50B1F12001BFF4F7AF090728BFB7
:10025000A0E80C5048BF0CC05DF804EB890028BF33
:1002600040F8042B08BF704748BF20F8022B11F05C
:10027000804F18BF00F8012B7047704770477047D8
:10028000004870476800002070477546FFF7F8FF88
:10029000AE4605006946534620F00700854618B073
:1002A00020B5FFF77FFFBDE820404FF000064FF07C
:1002B00000074FF000084FF0000B21F00701AC469B
:1002C000ACE8C009ACE8C009ACE8C009ACE8C009BA
:1002D0008D46704710B50446AFF300802046BDE858
:1002E0001040FFF74ABF000001491820ABBEFEE7EF
:1002F00026000200FEE7704770B5044600F004F9DE
:100300000546601C02D004480078044400F0FCF864
:10031000401BA042FAD370BD000000202DE9F84F29
:10032000DFF8B8910024A9F1040B23460F2709F147
:10033000040AABF1040EC9E00125A5402A40AA42F7
:100340007DD1674ED1F804C0ACEB0608B44532D07D
:1003500014DCBCF1030F3AD009DCBCF1000F2AD049
:10036000BCF1010F1CD0BCF1020F31D11DE0BCF17A
:10037000110F17D0BCF1120F2AD119E0B8F5881F60
:1003800019D006DCB8F5803F15D0B8F5801F1FD115
:1003900011E0B8F5001F0ED0B8F5041F18D10AE01F
:1003A000CB6815E0CB681B1D12E0CB6808330FE06B
:1003B000CB680C330CE08B682BB1012B4FF008039A
:1003C00003D0456104E0042302E0056100E000235E
:1003D000FF2A01D8064601E000F104064FEA840531
:1003E00001D9A5F12005D6F8008007FA05FC28EA16
:1003F0000C0803FA05F548EA0508C6F800804D68C0
:10040000ED0062D5374DAE6946F00106AE61AD69CB
:1004100024F0030605F001050095334D06EB050CAD
:10042000DCF80850A607360F07FA06F825EA080593
:10043000DFF8B880404503D14FF0000817E044E0F2
:10044000DFF8AC80404502D14FF001080FE0DFF843
:10045000A480404502D14FF0020808E0DFF8988000
:10046000404502D14FF0030801E04FF0040808FABC
:1004700006F848EA0508CCF808804D68D9F800600D
:10048000ED024D4601D5164300E096432E604D68BF
:10049000DAF80060AD02554601D5164300E09643F8
:1004A0002E604D68DBF80060AD035D4601D5164354
:1004B00000E096432E604D68DEF80060ED0375465F
:1004C00001D5164300E096432E60641C0D682A4651
:1004D000E5407FF431AFBDE8F88F0000080401402B
:1004E000000011100010024000000140000801400F
:1004F000000C014000100140001401400AB10161EC
:1005000070470904FBE7000001488068704700005D
:100510000000002002488168027811448160704721
:1005200000000020074810B5016841F0100101608B
:10053000032000F067F80F2000F006F800F024F820
:10054000002010BD0020024070B50D4D04464FF450
:100550007A712878B1FBF0F00A490968B1FBF0F034
:1005600000F0E9FB48B9102C07D200222146501EAA
:1005700000F028F800206C6070BD012070BD000004
:10058000000000200C0000200C4808B5816941F0F3
:1005900001018161816901F001010091C16941F0AE
:1005A0008051C161C06900F08050009004484168EA
:1005B00021F0E06141F00071416008BD001002408F
:1005C00000000140F0B40E4B1B680C46C3F302233D
:1005D000C3F10705042D00D90425191D072901D2EF
:1005E000002300E0DB1E012606FA05F1491E21402A
:1005F00099409E40761E16403143F0BC00F042BD4B
:100600000CED00E0064900F0070208684FF6FF0312
:10061000184040EA0220034A104308607047000077
:100620000CED00E00000FA052DE9F0470F4605004B
:1006300061D0434E306800F00700B84209D23068FC
:1006400020F0070038433060306800F00700B842FF
:1006500051D128683B4C810712D5400703D560680B
:1006600040F4E06060602878000703D5606840F4DB
:10067000605060606068A96820F0F0000843606026
:100680002878C00728D06868012810D0216802287F
:1006900010D0890700292EDA616821F00301014397
:1006A0006160FFF731FF804641F288390DE0216833
:1006B0008903EFE78901EDE7FFF726FFA0EB0801CB
:1006C000494502D90320BDE8F0876068696800F0F9
:1006D0000C00B0EB810FEFD1306800F00700B8429A
:1006E0000BD9306820F0070038433060306800F0E4
:1006F0000700B84201D00120E5E72878400705D57A
:100700006068E96820F4E0600843606028780007CA
:1007100006D56068296920F4605040EAC100606035
:1007200000F018F86168084AC1F30311515CC84031
:100730000649086006480068FFF706FF0020C2E788
:1007400000200240001002407E1300080C00002030
:10075000040000200E4A51680E4801F00C03042BDF
:1007600011D0082B0FD10C48C1F38343C903C05CDF
:100770000AD55168084AC1F34041921E515C054AAE
:100780005043B0FBF1F07047044948437047000004
:100790000010024000127A006E13000800093D00AC
:1007A0002DE9F84F040070D02078C04DC00749D023
:1007B0006868C0F38100012807D06868C0F3810031
:1007C000022809D16868C00306D52868800339D596
:1007D00060680028E7D035E06068B0F5803F0BD056
:1007E00010B1B0F5A02F11D0286820F48030286017
:1007F000286820F4802002E0286840F480302860D7
:10080000606890B1FFF780FE06460AE0286840F471
:1008100080202860F0E700BFFFF776FE801B642889
:1008200073D828688003F7D50CE0FFF76DFE064605
:1008300005E000BFFFF768FE801B6428F0D8286839
:100840008003F7D420789A4E80074FF001094FF0CB
:10085000000839D5686810F00C0F07D06868C0F33D
:100860008100022809D16868C00306D4286880077F
:1008700014D52069012808D110E02069B0B1C6F86C
:100880000090FFF741FE074605E00AE1FFF73CFE56
:10089000C01B0228C4D828688007F7D5286861697A
:1008A00020F0F80040EAC10028600DE0C6F80080A2
:1008B000FFF72AFE074604E0FFF726FEC01B0228CA
:1008C00023D828688007F7D4207800072CD57948EA
:1008D000A169D9B1C0F80090FFF716FE074604E001
:1008E000FFF712FEC01B02280FD8686A8007F7D5F1
:1008F00071484FF4FA510068B0FBF1F0009000BF6E
:100900000098411E0091FAD20EE080E0C0F800800D
:10091000FFF7FAFD074604E0FFF7F6FDC01B0228CB
:1009200075D8686A8007F7D42078400760D5E869F1
:100930000027C00008D4E86940F08050E861E86909
:10094000012700F0805000905C480168C90513D46D
:100950000168834641F480710160FFF7D5FD82464E
:1009600006E000BFFFF7D0FDA0EB0A0064284ED8D8
:10097000DBF80000C005F5D5E06801280AD008B111
:10098000052813D0286A20F001002862286A20F088
:10099000040002E0286A40F001002862E06841F2A9
:1009A000883B98B1FFF7B0FD82460BE0286A40F023
:1009B00004002862EEE700BFFFF7A6FDA0EB0A01E6
:1009C00059455AD8286A8007F6D50CE0FFF79CFDF8
:1009D000824605E0FFF798FDA0EB0A0159454CD887
:1009E000286A8007F6D41FB1E86920F08050E861DA
:1009F000E06988B36968C1F38101022944D0022803
:100A0000C6F8608004D0FFF77FFD044638E034E08C
:100A1000FFF77AFD074604E0FFF776FDC01B0228CA
:100A20002BD828688001F7D4206AB0F5803F05D123
:100A30006868A16820F4003008436860D4E90801C0
:100A40000843696821F4741108436860C6F860902F
:100A5000FFF75AFD044606E025E000BFFFF754FD0E
:100A6000001B022809D828688001F7D51BE000BFC9
:100A7000FFF74AFD001B022802D90320BDE8F88FCA
:100A800028688001F4D40EE00128F7D06868226A53
:100A900000F48031914204D1616A00F47010884200
:100AA00001D00120EAE70020E8E700000010024042
:100AB00000004242800442420C00002000700040CE
:100AC00070B5040009D0606A002540B125616561F8
:100AD000A56294F8510040B10CE0012070BD60683F
:100AE000B0F5827FF4D0E561F2E784F850502046FB
:100AF00000F040F8022084F851002068016821F0DD
:100B000040010160A088218900F4827001F4044151
:100B10000843A18901F400610843217C01F002012E
:100B20000843217D01F001010843218B01F400718C
:100B30000843217F01F03801084394F8201001F0A8
:100B400080010843218D01F40051084321680860A9
:100B5000A069042101EA1040216848602068C16949
:100B600021F40061C1616565012084F85100002015
:100B700070BD000000B585B0002100910191029187
:100B8000039100680F4988421AD10F48816941F4E6
:100B900080518161816901F480510491816941F042
:100BA000040181618069694600F004000490A0207E
:100BB000009002200190032003900448FFF7AEFB51
:100BC00005B000BD003001400010024000080140A7
:100BD0002DE9F84F984616468A460446FFF794FCDE
:100BE000814694F8510001281ED1BAF1000F73D04C
:100BF000002E71D094F85000012815D0012784F8F8
:100C00005070032084F8510000256565C4F830A0B9
:100C1000A686E686A563A587E58765642564A06842
:100C2000B0F5004F03D00CE00220BDE8F88F20683B
:100C3000016821F0400101602068016841F48041B1
:100C4000016020680168490603D4016841F0400151
:100C50000160E068B0F5006F606803D048B3012E12
:100C600027D047E008B1012E1FD1206B21680088F2
:100C7000C86006E020688168890709D5216B09886A
:100C8000C160206B801C2063E08E401EE0860CE07B
:100C9000FFF73AFCA0EB0901414503D3B8F1FF3F50
:100CA00003D035E0B8F1000F32D0E08E0028E1D15A
:100CB00023E0206B21680078087306E020688168D3
:100CC00089070AD5216B09780173206B401C2063CA
:100CD000E08E401EE0860DE02BE0FFF715FCA0EB58
:100CE0000901414503D3B8F1FF3F03D010E0B8F14B
:100CF000000F0DD0E08E0028E0D14A464146204644
:100D000000F0D9F808B120206065A06830B109E092
:100D100084F8517084F85050032086E72068C16839
:100D20008068009084F8517004F8505F6068002873
:100D3000F3D0012079E710B5401EB0F1807F01D3D8
:100D4000012010BD4FF0E02460610F21601700F01A
:100D500099F90020A06107202061002010BDFEE766
:100D600030B5234D4FF48064C1B00022214628469F
:100D7000FFF7C4FB1420FFF7BFFA012221462846E3
:100D8000FFF7BCFBC820FFF7B7FA00231A46194645
:100D9000012000F0EDF90022C8231146112000F0D7
:100DA000E7F914A0FC2200683F9013A013490068E3
:100DB00040906846FFF708FA3FA8349040A8002406
:100DC0006D46379004EB440005EB80004389027ABE
:100DD0004168007800F0CCF9641C152CF2D3002196
:100DE00040F23F13EF22084600F004FA41B030BD54
:100DF000000C01400800000005000000701200080F
:100E000070B586B0002418480094019402940394AD
:100E1000816941F020018161816901F02001049123
:100E2000816941F004018161816901F0040104914B
:100E3000816941F00801816180690C4E00F0080071
:100E400040F203450490002229463046FFF756FB46
:100E500001200095CDE90104032003906946304646
:100E6000FFF75CFA06B070BD00100240000C0140B4
:100E70000E4810B50C4901604FF4827141600021A9
:100E80008160C1604FF400720161C0E90512C16167
:100E90000162416281620A21C162FFF711FE0028EE
:100EA00001D072B6FEE710BD0030014010000020F6
:100EB000FEE7FEE77047F8B515460E460B46009272
:100EC00004460122022100F011F840B93346002205
:100ED00080212046009500F009F8002804D0606DBC
:100EE00040F0200060650320F8BD00002DE9F843C4
:100EF0001E46914688460446089DFFF705FB401BA9
:100F0000351AFFF701FB074625480068C0F3CB30D0
:100F1000684338E0701C37D0FFF7F6FAC01BA842D0
:100F200003D215B1009860B32CE02068416821F02D
:100F3000E00141606068B0F5827F0BD1A068B0F538
:100F4000004F02D0B0F5806F04D12068016821F015
:100F500040010160A06AB0F5005F09D12068016816
:100F600021F4005101602068016841F400510160E2
:100F7000012084F85100002084F850000320BDE8CF
:100F8000F8830025401E00902068816838EA01003F
:100F900004D000214945BDD10020F0E70121F9E747
:100FA0000C0000207047FFF7B5BA30B58FB028218C
:100FB0006846FFF73BF914210AA8FFF737F901212A
:100FC0000804CDE900100024029402250491CDE923
:100FD00007504FF4E01009906846FFF7E1FB08B1B5
:100FE00072B6FEE70F20CDE90A054FF48060CDE927
:100FF0000C4002210AA80E94FFF716FB002801D02E
:1010000072B6FEE70FB030BD7047FEE731B50C4C4D
:10101000002201212046FFF771FA0022022120461A
:10102000FFF76CFA4FF47A73012269460548FFF71F
:10103000CFFD012211462046FFF760FA38BD0000BF
:10104000000C01401000002031B50C4C00220121A1
:101050002046FFF753FA012202212046FFF74EFAFD
:101060004FF47A73012269460548FFF7B1FD01226A
:1010700011462046FFF742FA38BD0000000C01403F
:10108000100000200907090E002804DB00F1E02011
:1010900080F80014704700F00F0000F1E02080F8A5
:1010A000141D70472DE9F041ADF5007D020AC3B271
:1010B0004FF496344FF480760020694601EB4005EA
:1010C00001F81030401C6A70FF28F7D9002140F267
:1010D0003F13EF22084600F08DF82C20FFF796FF13
:1010E000DFF84C800022012145464046FFF706FA12
:1010F000012202212846FFF701FA4FF47A7701E036
:10110000B44201D9354600E025466804020C3B464E
:1011100069460848FFF75CFD08B9641BF0D101225D
:1011200011464046FFF7EAF90DF5007DBDE8F08174
:10113000000C014010000020FFF7F4F9FFF735FF25
:10114000FFF75EFEFFF794FE012202210748FFF73A
:10115000D5F9FFF705FE4FF478444FF4FA752046B1
:10116000FFF7A0FF2846FFF7C7F8F8E7000C01409B
:101170002DE9FF471D4F154688461E4600220121D6
:101180003846FFF7BBF9002202213846FFF7B6F9CF
:101190004FF47A794B46012269461548FFF718FD4E
:1011A000040005D0012211463846FFF7A7F918E0E0
:1011B00075B1B8F1000F0BD0012202213846FFF7BC
:1011C0009DF9AAB24B4641460948FFF701FD044686
:1011D000012211463846FFF791F916B13046FFF764
:1011E0008BF804B02046BDE8F0870000000C0140F9
:1011F000100000202DE9F04107461C4615460E461A
:101200002A20FFF703FF380AFFF71EFFF8B2FFF7A7
:101210001BFF280AFFF718FFE8B2FFF715FF2B2086
:10122000FFF7F4FE300AFFF70FFFF0B2FFF70CFFF5
:10123000200AFFF709FFE0B2BDE8F041FFF704BF65
:10124000012C2D012C2D0702840A008A2A8AEE0E19
:10125000021C07123732292D29252B3900010310D2
:10126000031D07062E2C292D2E2E373F00000210BD
:101270000100000000000000000005001100000057
:10128000000000000000C800B2000000401200088A
:1012900003000000B200000040120008030000003C
:1012A000B30000004312000803000000B200000079
:1012B0004012000803000000B400000046120008BD
:1012C00001000000C000000000000000000000005D
:1012D000A20000004712000802000000C100000048
:1012E0000000000000000000C50000000000000039
:1012F00000000000C20000004912000802000000C7
:10130000C30000004B12000802000000C4000000EF
:101310004D12000802000000C50000004F12000836
:1013200001000000E0000000501200081000000062
:10133000E10000006012000810000000360000000C
:1013400000000000010000003A0000000000000062
:10135000010000002000000000000000000000006C
:1013600029000000000000000000640001020203E8
:101370000405060708090A0B0C0D0E0F10100000DB
:101380000000000000000102030406070809000035
:10139000B013000800000020100000002801000821
:1013A000C013000810000020B80600004401000827
:1013B00001000000100000000000000000127A0090
:04000005080000ED02
:00000001FF
