:020000040800F2
:10000000E80C002089010008231900083F130008AC
:10001000211900082B0300081D1E00080000000025
:10002000000000000000000000000000151A000899
:100030002D0300080000000025190008171A000809
:10004000A3010008A3010008A3010008A301000800
:10005000A3010008A3010008A3010008A3010008F0
:10006000A3010008A3010008A3010008A3010008E0
:10007000A3010008A3010008A3010008A3010008D0
:10008000A3010008A3010008A3010008A3010008C0
:10009000A3010008A3010008A3010008A3010008B0
:1000A000A3010008A3010008A3010008A3010008A0
:1000B000A3010008A3010008A3010008A301000890
:1000C000A3010008A3010008A3010008A301000880
:1000D000A3010008111E0008A3010008A3010008E5
:1000E000A3010008A3010008A301000800F002F822
:1000F00000F03AF80AA090E8000C82448344AAF188
:100100000107DA4501D100F02FF8AFF2090EBAE885
:100110000F0013F0010F18BFFB1A43F0010318473B
:10012000B8240000D8240000103A24BF78C878C151
:10013000FAD8520724BF30C830C144BF04680C60ED
:10014000704700000023002400250026103A28BF35
:1001500078C1FBD8520728BF30C148BF0B60704739
:100160001FB51FBD10B510BD00F0A5F81146FFF773
:10017000F7FF01F065FE00F0C3F803B4FFF7F2FFEC
:1001800003BC00F0CBF8000009488047094800474D
:10019000FEE7FEE7FEE7FEE7FEE7FEE7FEE7FEE737
:1001A000FEE7FEE704480549054A064B7047000094
:1001B000791A0008ED000008E8060020E80C00208D
:1001C000E8080020E80800204FF000020429C0F0F1
:1001D000128010F0030C00F01B80CCF1040CBCF179
:1001E000020F18BF00F8012BA8BF20F8022BA1EBCB
:1001F0000C0100F00DB85FEAC17C24BF00F8012BB0
:1002000000F8012B48BF00F8012B70474FF00002A7
:1002100000B5134694469646203922BFA0E80C50FC
:10022000A0E80C50B1F12001BFF4F7AF090728BFD7
:10023000A0E80C5048BF0CC05DF804EB890028BF53
:1002400040F8042B08BF704748BF20F8022B11F07C
:10025000804F18BF00F8012B704710B5044610F00E
:10026000030F08BF11F0030F40F015804FF0013E5F
:10027000121FC0F20E8051F8043BA3EB0E0C2CEAC7
:10028000030C1CEACE1C08BF40F8043BF0D0A1F1DF
:10029000040102F10402521E08DB11F8013B002B9D
:1002A00000F8013BF7D11146FFF78EFF204610BD45
:1002B000704770477047754600F02CF8AE46050051
:1002C0006946534620F00700854618B020B5FFF771
:1002D00069FFBDE820404FF000064FF000074FF0E7
:1002E00000084FF0000B21F00701AC46ACE8C00954
:1002F000ACE8C009ACE8C009ACE8C0098D4670475D
:1003000010B50446AFF300802046BDE81040FFF76B
:1003100034BF0000004870478806002001491820BB
:10032000ABBEFEE7260002007047FEE7704710B53F
:1003300090F821100022022905D00421816380F861
:100340002020012010BD01680B6823F00E030B6014
:1003500001680B6823F001030B6090F84030C46B18
:10036000012101FA03F3636080F8211080F8202056
:10037000104610BD10B590F821100024022903D0BA
:100380000421816301243DE001680A6822F00E0225
:100390000A6001680A6822F001020A601A4A0168CC
:1003A000914201D1012121E0174A1432914201D139
:1003B00010211BE0144A2832914201D1891515E021
:1003C000114A3C32914201D189140FE00E4A503259
:1003D000914202D14FF4803108E00B4A64329142DD
:1003E00002D14FF4801101E04FF08071064A083AC3
:1003F0005160012180F82110002180F82010416B0C
:1004000001B18847204610BD0800024070B504467F
:1004100000F004F90546601C02D00448007804444A
:1004200000F0FCF8401BA042FAD370BD1000002081
:100430002DE9F84FDFF8B8910024A9F1040B234609
:100440000F2709F1040AABF1040EC9E00125A5400C
:100450002A40AA427DD1674ED1F804C0ACEB060811
:10046000B44532D014DCBCF1030F3AD009DCBCF146
:10047000000F2AD0BCF1010F1CD0BCF1020F31D10A
:100480001DE0BCF1110F17D0BCF1120F2AD119E0F9
:10049000B8F5881F19D006DCB8F5803F15D0B8F53F
:1004A000801F1FD111E0B8F5001F0ED0B8F5041F52
:1004B00018D10AE0CB6815E0CB681B1D12E0CB68B1
:1004C00008330FE0CB680C330CE08B682BB1012BA9
:1004D0004FF0080303D0456104E0042302E0056106
:1004E00000E00023FF2A01D8064601E000F10406DF
:1004F0004FEA840501D9A5F12005D6F8008007FA56
:1005000005FC28EA0C0803FA05F548EA0508C6F8D0
:1005100000804D68ED0062D5374DAE6946F00106AA
:10052000AE61AD6924F0030605F001050095334D79
:1005300006EB050CDCF80850A607360F07FA06F89C
:1005400025EA0805DFF8B880404503D14FF00008E0
:1005500017E044E0DFF8AC80404502D14FF00108DD
:100560000FE0DFF8A480404502D14FF0020808E018
:10057000DFF89880404502D14FF0030801E04FF0CA
:10058000040808FA06F848EA0508CCF808804D681F
:10059000D9F80060ED024D4601D5164300E09643C0
:1005A0002E604D68DAF80060AD02554601D516435D
:1005B00000E096432E604D68DBF80060AD035D46B9
:1005C00001D5164300E096432E604D68DEF80060CA
:1005D000ED03754601D5164300E096432E60641C7A
:1005E0000D682A46E5407FF431AFBDE8F88F000082
:1005F00008040140000011100010024000000140FA
:1006000000080140000C01400010014000140140AE
:100610000AB1016170470904FBE7000001488068E6
:1006200070470000100000200248816802781144E1
:100630008160704710000020074810B5016841F044
:1006400010010160032000F075F80F2000F006F89B
:1006500000F024F8002010BD0020024070B50D4DC0
:1006600004464FF47A712878B1FBF0F00A49096822
:10067000B1FBF0F000F017FC48B9102C07D20022B3
:100680002146501E00F036F800206C6070BD01203D
:1006900070BD0000100000201C0000200C4808B5B0
:1006A000816941F001018161816901F001010091DD
:1006B000C16941F08051C161C06900F08050009073
:1006C0000448416821F0E06141F00071416008BDDB
:1006D0000010024000000140002809DB00F01F026A
:1006E000012191404009800000F1E020C0F8001194
:1006F00070470000F0B40E4B1B680C46C3F3022396
:10070000C3F10705042D00D90425191D072901D2BD
:10071000002300E0DB1E012606FA05F1491E2140F8
:1007200099409E40761E16403143F0BC01F077BBE5
:100730000CED00E0064900F0070208684FF6FF03E1
:10074000184040EA0220034A104308607047000046
:100750000CED00E00000FA052DE9F0470F4605001A
:1007600061D0434E306800F00700B84209D23068CB
:1007700020F0070038433060306800F00700B842CE
:1007800051D128683B4C810712D5400703D56068DA
:1007900040F4E06060602878000703D5606840F4AA
:1007A000605060606068A96820F0F00008436060F5
:1007B0002878C00728D06868012810D0216802284E
:1007C00010D0890700292EDA616821F00301014366
:1007D0006160FFF723FF804641F288390DE0216810
:1007E0008903EFE78901EDE7FFF718FFA0EB0801A8
:1007F000494502D90320BDE8F0876068696800F0C8
:100800000C00B0EB810FEFD1306800F00700B84268
:100810000BD9306820F0070038433060306800F0B2
:100820000700B84201D00120E5E72878400705D548
:100830006068E96820F4E060084360602878000799
:1008400006D56068296920F4605040EAC100606004
:1008500000F038F86168084AC1F30311515CC840E0
:100860000649086006480068FFF7F8FE0020C2E766
:100870000020024000100240BE2500081C0000209D
:10088000140000200448054900684968044AC1F37F
:100890000221515CC84070471C000020001002403B
:1008A000CE2500080448054900684968044AC1F398
:1008B000C221515CC84070471C000020001002405B
:1008C000CE2500080E4A51680E4801F00C03042B97
:1008D00011D0082B0FD10C48C1F38343C903C05C6E
:1008E0000AD55168084AC1F34041921E515C054A3D
:1008F0005043B0FBF1F07047044948437047000093
:100900000010024000127A00AE25000800093D00E8
:100910002DE9F84F040070D02078C04DC00749D0B1
:100920006868C0F38100012807D06868C0F38100BF
:10093000022809D16868C00306D52868800339D524
:1009400060680028E7D035E06068B0F5803F0BD0E4
:1009500010B1B0F5A02F11D0286820F480302860A5
:10096000286820F4802002E0286840F48030286065
:10097000606890B1FFF752FE06460AE0286840F42E
:1009800080202860F0E700BFFFF748FE801B642846
:1009900073D828688003F7D50CE0FFF73FFE0646C2
:1009A00005E000BFFFF73AFE801B6428F0D82868F6
:1009B0008003F7D420789A4E80074FF001094FF05A
:1009C000000839D5686810F00C0F07D06868C0F3CC
:1009D0008100022809D16868C00306D4286880070E
:1009E00014D52069012808D110E02069B0B1C6F8FB
:1009F0000090FFF713FE074605E00AE1FFF70EFE41
:100A0000C01B0228C4D828688007F7D52868616908
:100A100020F0F80040EAC10028600DE0C6F8008030
:100A2000FFF7FCFD074604E0FFF7F8FDC01B0228B6
:100A300023D828688007F7D4207800072CD5794878
:100A4000A169D9B1C0F80090FFF7E8FD074604E0BE
:100A5000FFF7E4FDC01B02280FD8686A8007F7D5AE
:100A600071484FF4FA510068B0FBF1F0009000BFFC
:100A70000098411E0091FAD20EE080E0C0F800809C
:100A8000FFF7CCFD074604E0FFF7C8FDC01B0228B6
:100A900075D8686A8007F7D42078400760D5E86980
:100AA0000027C00008D4E86940F08050E861E86998
:100AB000012700F0805000905C480168C90513D4FC
:100AC0000168834641F480710160FFF7A7FD82460B
:100AD00006E000BFFFF7A2FDA0EB0A0064284ED895
:100AE000DBF80000C005F5D5E06801280AD008B1A0
:100AF000052813D0286A20F001002862286A20F017
:100B0000040002E0286A40F001002862E06841F237
:100B1000883B98B1FFF782FD82460BE0286A40F0DF
:100B200004002862EEE700BFFFF778FDA0EB0A01A2
:100B300059455AD8286A8007F6D50CE0FFF76EFDB4
:100B4000824605E0FFF76AFDA0EB0A0159454CD843
:100B5000286A8007F6D41FB1E86920F08050E86168
:100B6000E06988B36968C1F38101022944D0022891
:100B7000C6F8608004D0FFF751FD044638E034E049
:100B8000FFF74CFD074604E0FFF748FDC01B0228B5
:100B90002BD828688001F7D4206AB0F5803F05D1B2
:100BA0006868A16820F4003008436860D4E908014F
:100BB0000843696821F4741108436860C6F86090BE
:100BC000FFF72CFD044606E025E000BFFFF726FDF9
:100BD000001B022809D828688001F7D51BE000BF58
:100BE000FFF71CFD001B022802D90320BDE8F88F87
:100BF00028688001F4D40EE00128F7D06868226AE2
:100C000000F48031914204D1616A00F4701088428E
:100C100001D00120EAE70020E8E7000000100240D0
:100C200000004242800442421C000020007000404C
:100C300070B5040009D0606A002540B12561656186
:100C4000A56294F8510040B10CE0012070BD6068CD
:100C5000B0F5827FF4D0E561F2E784F85050204689
:100C600000F040F8022084F851002068016821F06B
:100C700040010160A088218900F4827001F40441E0
:100C80000843A18901F400610843217C01F00201BD
:100C90000843217D01F001010843218B01F400711B
:100CA0000843217F01F03801084394F8201001F037
:100CB00080010843218D01F4005108432168086038
:100CC000A069042101EA1040216848602068C169D8
:100CD00021F40061C1616565012084F851000020A4
:100CE00070BD000000B585B0002100910191029116
:100CF000039100680F4988421AD10F48816941F475
:100D000080518161816901F480510491816941F0D0
:100D1000040181618069694600F004000490A0200C
:100D2000009002200190032003900448FFF780FB0D
:100D300005B000BD00300140001002400008014035
:100D40002DE9F84F984616468A460446FFF766FC9A
:100D5000814694F8510001281ED1BAF1000F73D0DA
:100D6000002E71D094F85000012815D0012784F886
:100D70005070032084F8510000256565C4F830A048
:100D8000A686E686A563A587E58765642564A068D1
:100D9000B0F5004F03D00CE00220BDE8F88F2068CA
:100DA000016821F0400101602068016841F4804140
:100DB000016020680168490603D4016841F04001E0
:100DC0000160E068B0F5006F606803D048B3012EA1
:100DD00027D047E008B1012E1FD1206B2168008881
:100DE000C86006E020688168890709D5216B0988F9
:100DF000C160206B801C2063E08E401EE0860CE00A
:100E0000FFF70CFCA0EB0901414503D3B8F1FF3F0C
:100E100003D035E0B8F1000F32D0E08E0028E1D1E8
:100E200023E0206B21680078087306E02068816861
:100E300089070AD5216B09780173206B401C206358
:100E4000E08E401EE0860DE02BE0FFF7E7FBA0EB15
:100E50000901414503D3B8F1FF3F03D010E0B8F1D9
:100E6000000F0DD0E08E0028E0D14A4641462046D2
:100E700000F059FD08B120206065A06830B109E09C
:100E800084F8517084F85050032086E72068C168C8
:100E90008068009084F8517004F8505F6068002802
:100EA000F3D0012079E710B5401EB0F1807F01D367
:100EB000012010BD4FF0E02460610F21601700F0A9
:100EC000AEFF0020A06107202061002010BD704708
:100ED00070470000F8B5016804460868CA684B69A5
:100EE00010F00F0F4FF0000559D003F0010602F487
:100EF0009077374365D0C10705D0D10503D5616C24
:100F000041F001016164410705D5D90703D0616C47
:100F100041F002016164810705D5D90703D0616CF6
:100F200041F004016164010707D502F0200131435B
:100F300003D0616C41F008016164616C00293AD012
:100F4000800604D5900602D5204600F050FE2068A9
:100F50004069616CC0F38010090700D460B320467B
:100F600000F01EFE20684069400621D5206814303C
:100F700050E8001F21F0400140E80012002AF5D19E
:100F8000E06BA8B16D494163E06BFFF7F3F900280E
:100F900011D0E06B416B01B0BDE8F040084783061B
:100FA0000FD593060DD52046BDE8F84000F01FBED2
:100FB0002046FFF78DFFF8BD2046FFF789FF6564E7
:100FC000F8BD266B2023012E7CD1C6067AD5D60625
:100FD00078D508684868009048694FF002064006D6
:100FE00040D5E16B086840680004000CE8D0A28D91
:100FF0008242E5D9E085886920282DD020680C3010
:1010000050E8001F21F4807140E80012002AF5D159
:101010002068143050E8001F21F0010140E8001260
:10102000002AF5D12068143050E8001F21F040015B
:1010300040E80012002AF5D184F842302563206888
:101040000C3050E8001F21F0100140E80012002A87
:10105000F5D1E06BFFF76BF96663A08DE18D401A67
:1010600081B22AE0A08DE18D401A81B2E08D002886
:10107000A6D00029A4D022680C3252E8000F20F438
:10108000907042E80007002FF5D12068143050E836
:10109000002F22F0010240E80027002FF5D184F84C
:1010A0004230256320680C3050E8002F22F01002F7
:1010B00040E80023002BF5D166632046FFF707FFC9
:1010C000F8BDFFE705062BD5150629D594F8410094
:1010D0002128F5D1A068B0F5805F01D12069B0B1B9
:1010E000206A411C2162216800784860E08C401E23
:1010F0000004000CE084E3D12068C16821F0800185
:10110000C1602068C16841F04001C160D8E7206A31
:101110000088C0F308004860206A801C2062E5E770
:101120004006CDD55006CBD5CA68204622F04002F5
:10113000CA6084F8413000F001F9C1E7911B000852
:1011400070B5040004D094F84100002510B106E009
:10115000012070BD84F84050204600F023F8242080
:1011600084F841002068C16821F40051C160204624
:1011700000F09EFD2068016921F490410161206822
:10118000416921F02A0141612068C16841F40051A0
:10119000C1606564202084F8410084F842006563E2
:1011A000002070BD70B586B00024009401940294B4
:1011B00003942B4E03682B49022003222A4DB3428D
:1011C00029D18B6943F480438B618B6903F480439D
:1011D00004938B6943F004038B618969039201F0E6
:1011E000040104910102CDE9001069462846FFF789
:1011F0001FF92815CDE90004694628460294FFF737
:1012000017F9002211462520FFF774FA2520FFF771
:1012100063FA06B070BD154EB342FAD1CB6943F400
:101220000033CB61CB6903F4003304938B6943F043
:1012300004038B618969039201F004010491042184
:10124000CDE9001069462846FFF7F2F80820CDE9FD
:101250000004694628460294FFF7EAF8D9E700003F
:1012600000380140001002400008014000440040E6
:1012700090F84230202B01D00220704721B11AB1E2
:101280000023036300F070BD0120704702498842CB
:1012900001D100F04BBC7047780100202DE9F843E4
:1012A000044690F84100984616460D46202802D084
:1012B0000220BDE8F88385B17EB100206064212062
:1012C00084F84100FFF7AAF9A6848146E684A06865
:1012D0002027B0F5805F02D003E00120E9E7206914
:1012E00010B12E4600250EE000260CE0802120469D
:1012F00000F055FDA8B9C6B116F8010B2168486089
:10130000E08C401EE084E08C4B464FF00002CDF8AC
:1013100000800028EAD14FF04001204600F03FFD58
:1013200040B184F841700320C3E735F8020BC0F3E5
:101330000800E3E784F841700020BAE77047FEE751
:10134000012202210148FFF763B90000000C0140AF
:101350002DE9FF4F81B0A0F11F020F9B612A37D208
:1013600011F8012B203811F8015B11F8026B00FB1A
:10137000021A11F801BC0093DDE9030133462A4645
:1013800000F097F8002421E0C4F3C400002700F126
:10139000010804F00701012000FA01F90498204433
:1013A000009010E00BFB07A111F8080009F0FF0105
:1013B000084207D000980E9A81B20398384480B250
:1013C00000F062F87F1CAF42ECDB641CB442DBDB54
:1013D00005B0BDE8F08F00002DE9FF4F81460025E4
:1013E00083B014460120A0EB4400CDE901058846F6
:1013F000009544E0A9EB040608EB050BA8EB050AF1
:1014000009EB04070DE000BF1FFA8BF1B0B2069A9A
:1014100000F03AF81FFA8AF1B0B2069A00F034F8F8
:10142000761CB742F0DAA9EB050608EB040BA8EB33
:10143000040A09EB05070CE01FFA8BF1B0B2069A1B
:1014400000F022F81FFA8AF1B0B2069A00F01CF8F8
:10145000761CB742F0DA029900986D1C084400909F
:10146000881C0290DDE9001000EB4100002806DD39
:101470000846019908440090881C641E0190AC4203
:10148000B8DA07B0BDE8F08F38B51446B0F5A07FE4
:101490000ED2F0290CD20B46024600F087F9200A42
:1014A0008DF800008DF801400221684600F0C8F96F
:1014B00038BDF8B54FF4A076069CB04212D2F029A0
:1014C00010D285186D1EB54202DBC0F5A07292B233
:1014D000CD186D1EF02D02DBC1F1F0039BB200941C
:1014E00000F028F8F8BD2DE9FC5F9B46DDE90CA96A
:1014F00016460D46044691F800804F7815E0CDE978
:1015000000A95B4632462946FFF722FF20782A1DB4
:10151000203800FB08200078811CB94202D23044F8
:10152000801C00E0F01986B2641C20780028E6D107
:10153000BDE8FC9F2DE9F0411E464FF4A073069DC7
:101540001446984243D2F02941D20219521E9A42BF
:1015500002DBC0F5A07294B28A19521EF02A02DB97
:10156000C1F1F00296B28A19521E93B20219521EAC
:1015700092B200F01BF974438026002015492A0A14
:101580005FFA85F301F8102001EB4005401C80B2A2
:101590006B70B042F6D300F001F9FFF7D1FE4FF6C1
:1015A000FF774FF0FF380CE0B44201D9354600E038
:1015B000254607EA4502434606490748FFF7C0FBB0
:1015C000641B002CF0D1BDE8F04100F01BB9BDE870
:1015D000F0810000200000202001002008B500213B
:1015E0000090F0234FF4A0720846FFF7A3FF08BD58
:1015F00030B55C4D4FF4806491B0002221462846FE
:10160000FFF706F81420FEF701FF012221462846C5
:10161000FEF7FEFF9620FEF7F9FEEF2000F0FAF845
:1016200051A003210068029002A800F009F9CF2020
:1016300000F0F0F84DA003210068039003A800F02B
:10164000FFF8ED2000F0E6F849A0042100680490BE
:1016500004A800F0F5F8E82000F0DCF845A003212C
:101660000068059005A800F0EBF8CB2000F0D2F858
:1016700041A1D1E90001CDE900010521684600F052
:10168000DFF8F72000F0C6F83DA0012100680690C1
:1016900006A800F0D5F8EA2000F0BCF8002007907A
:1016A000022107A800F0CCF8C02000F0B3F835A064
:1016B00001210068089008A800F0C2F8C12000F0DD
:1016C000A9F831A001210068099009A800F0B8F834
:1016D000C52000F09FF82DA0022100680A900AA8FA
:1016E00000F0AEF8C72000F095F829A001210068AD
:1016F0000B900BA800F0A4F8362000F08BF84020E7
:101700008DF8300001210CA800F09AF83A2000F082
:1017100081F855208DF8340001210DA800F090F8D3
:10172000B12000F077F81BA0022100680E900EA8EF
:1017300000F086F8B62000F06DF817A003210068CD
:101740000F900FA800F07CF8112000F063F87820CB
:10175000FEF75CFE292000F05DF81420FEF756FE2F
:1017600011B030BD000C01400380020000C1300008
:101770006403128185007800392C003402000000D7
:101780002000000023000000100000003E280000A0
:1017900086000000001800000882270000220121B6
:1017A0000148FEF735BF0000000C0140F8B50746C0
:1017B0001C4615460E462A2000F02CF8380A8DF8F3
:1017C00000008DF80170280A8DF802008DF8035092
:1017D0000421684600F034F82B2000F01BF8300A92
:1017E0008DF800008DF80160200A8DF802008DF858
:1017F00003400421684600F023F82C2000F00AF88A
:10180000F8BD0000012211460148FEF701BF0000AB
:10181000000C014001B5FFF7C1FF0022022106487C
:10182000FEF7F6FE4FF0FF33012269460348FFF74B
:1018300087FAFFF7E7FF08BD000C014020010020F8
:1018400070B50C0005460ED0FFF7A8FFFFF778FD36
:101850004FF0FF33224629460348FFF771FABDE8EF
:101860007040FFF7CFBF70BD2001002070B586B07B
:10187000002418480094019402940394816941F073
:1018800020018161816901F020010491816941F0A9
:1018900004018161816901F004010491816941F0D1
:1018A0000801816180690C4E00F0080040F2034598
:1018B0000490002229463046FEF7AAFE012000953A
:1018C000CDE901040220039069463046FEF7B0FDE1
:1018D00006B070BD00100240000C01400F4810B56A
:1018E0000D4901604FF48271416000218160C16047
:1018F0004FF400720161C0E905120822C0E9072116
:10190000416281620A21C162FFF792F9002801D089
:1019100072B6FEE710BD000000300140200100203B
:10192000FEE7FEE77047F8B515460E460B460092F7
:1019300004460122022100F011F840B9334600228A
:1019400080212046009500F009F8002804D0606D41
:1019500040F0200060650320F8BD00002DE9F84349
:101960001E46914688460446089DFEF757FE401BDA
:10197000351AFEF753FE074625480068C0F3CB3002
:10198000684338E0701C37D0FEF748FEC01BA84201
:1019900003D215B1009860B32CE02068416821F0B3
:1019A000E00141606068B0F5827F0BD1A068B0F5BE
:1019B000004F02D0B0F5806F04D12068016821F09B
:1019C00040010160A06AB0F5005F09D1206801689C
:1019D00021F4005101602068016841F40051016068
:1019E000012084F85100002084F850000320BDE855
:1019F000F8830025401E00902068816838EA0100C5
:101A000004D000214945BDD10020F0E70121F9E7CC
:101A10001C0000207047FEF707BE30B58FB02821AC
:101A20006846FEF7F3FB14210AA8FEF7EFFB01213D
:101A30000804CDE900100024029402250491CDE9A8
:101A400007504FF4E01009906846FEF761FF08B1B7
:101A500072B6FEE70F20CDE90A054FF48060CDE9AC
:101A60000C4002210AA80E94FEF776FE002801D051
:101A700072B6FEE70FB030BD70470000074910B5E1
:101A80008860002088808870487008708021044831
:101A9000FEF79AFBBDE8104000F04ABA00000020B3
:101AA0000802002070B50B4D0B4C0FE072B6207889
:101AB000217805EBC010491C01F007012170A178C5
:101AC000491EA17062B6E16801B18847A07800287C
:101AD000ECD170BD880200200000002070B50146E6
:101AE00072B6104CA078082803D362B64FF0FF30CE
:101AF00070BD0D4D60787F2205EBC010FEF7ADFB89
:101B00006178002005EBC11181F87F006078401CEE
:101B100000F007006070A078401CA07062B6002042
:101B200070BD0000000000208802002070B513493D
:101B30000A23CC1E0122A068FFF7B0FBE078104D0D
:101B40000D280FD00A280DD03B280BD0A1887F2963
:101B500004D2A1886A18491CA1801070BDE87040A9
:101B600000F0E6B9A0880028F8D0A08800262E54FE
:101B70000348FFF7B3FFA6802E70EFE703000020B5
:101B8000080200200149C8607047000000000020E2
:101B900010B5406A0021C185C184FFF799F910BDD5
:101BA00001680C3151E8002F22F4907241E80023C3
:101BB000002BF5D10168143151E8002F22F0010209
:101BC00041E80023002BF5D1016B012909D10168FF
:101BD0000C3151E8002F22F0100241E80023002BC5
:101BE000F5D1202180F8421000210163704708B52B
:101BF00090F84210222901D0022008BD82684FF4DB
:101C000080539A4201D1016921B1816A9A421BD065
:101C10004AB10AE00268816A5268C2F308020A8087
:101C2000816A891C08E0026972B10268526802F098
:101C30007F020A70816A491C8162C18D491E0904B4
:101C4000090CC18503D01BE002685268F1E7016806
:101C5000CA6822F02002CA600168CA6822F4807251
:101C6000CA6001684A6922F001024A61202180F8B5
:101C7000421000214163026B012A03D0FFF706FBEB
:101C8000002008BD016301680C3151E8002F22F0EB
:101C9000100241E80023002BF5D101680A68D20642
:101CA00002D50A6849680091818DFFF710F9E7E7CE
:101CB00070B5044600680169E26821F4405111439F
:101CC00001612169A0680843616908432168CA6805
:101CD00041F20C639A430243CA6020684169A269D9
:101CE00021F44071114341611E492068884202D1AC
:101CF000FEF7D8FD01E0FEF7C5FD00EBC00101EBEA
:101D00000012606864218000B2FBF0F3B3FBF1F3D2
:101D10006FF018067343B2FBF0F5B2FBF0F605EB7B
:101D20008305322303EB0515B5FBF1F5B6FBF1F6A0
:101D300005F0F00505EB0615B2FBF0F6B2FBF0F08E
:101D4000B0FBF1F06FF01802504306EB800003EB9C
:101D50000010B0FBF1F0216800F00F00284488600B
:101D600070BD00000038014081628285C28500217B
:101D70004164222180F84210016921B10168CA68DA
:101D800042F48072CA6001684A6942F001024A6105
:101D90000068C16841F02001C160002070472DE952
:101DA000F843984617460D460446089E24E0701CEA
:101DB00022D0FEF733FCA0EB0800B0421AD8CEB117
:101DC0002068C168490717D5802D15D0402D13D044
:101DD0000168C94309070FD40168002540680090D5
:101DE0002046FFF7DDFE0820606484F840500120A3
:101DF000BDE8F8830320FBE72068006835EA0000AF
:101E000004D00020B842D2D00020F1E70120F9E749
:101E10000148FFF75FB8000078010020FEE70907DE
:101E2000090E002804DB00F1E02080F80014704760
:101E300000F00F0000F1E02080F8141D7047000052
:101E4000FEF7FAFBFFF7E9FDFFF710FDFFF746FD90
:101E5000274826494FF4E13500240160C0E90154C8
:101E60000C26C460C0E904468461C461FFF768F9C8
:101E700008B172B6FEE71E481E4948300160C0E94D
:101E80000154C460C0E904468461C461FFF758F995
:101E900008B172B6FEE7012202211748FEF7B8FB2F
:101EA000FFF7A6FB1248FFF7E9FD1448FFF76AFEAB
:101EB0000020FFF793FB0A214FF478420846FFF712
:101EC000E3FA14214FF6E0720846FFF7DDFAC82165
:101ED0004FF4FC631E220846FFF77EFA4FF47A7433
:101EE000FFF7E0FD2046FEF791FAF9E700380140E0
:101EF0007801002000440040000C0140011F000850
:101F00001CB5642204464FF6FF7311461046FFF7D6
:101F100063FA4FF6E0714FF4FC60CDE900016423F1
:101F20001A4602492046FFF7DEFA1CBD481F00088A
:101F300004488068002804D002490122C91CFFF728
:101F400097B970470000002011080C02050000003E
:101F5000000000000000000000000000000200007F
:101F60007E01000000000000000000000000030EE1
:101F70000000000E0000000000000000000000054E
:101F8000E8015E00E8015E0048000000000000007B
:101F9000058C001201FF031201E4000000000000A4
:101FA00000070C0012008C017000CC002201C00060
:101FB000000005E0002C013201CC00E00000000030
:101FC000000000010E000000000000000000000002
:101FD0000000000002FC03020400000000000000FA
:101FE0000000000000020204FC03000000000000EA
:101FF0000000000000000314000E001400000000A8
:10200000000000000000000520002000F800200073
:102010002000000000000000020004000300000097
:10202000000000000000000000024000400000002E
:10203000000000000000000000000200000001009D
:10204000000000000000000000000003C00130009C
:102050000E000000000000000000000004FC000270
:10206000010201FC00000000000000000003080065
:102070000400FE01000000000000000000000484D5
:1020800001420122011C01000000000000000004C8
:10209000840012011201EC000000000000000000AA
:1020A00005600058004400FE0140000000000000F0
:1020B0000004980016011201E20000000000000078
:1020C000000004FC0022011201E4000000000000F6
:1020D000000000040200C2013A00060000000000F7
:1020E0000000000004EC0012011201EC00000000EE
:1020F0000000000000049C0022011201FC0000000E
:1021000000000000000002000008010000000000C4
:1021100000000000000000020004080300000000AE
:102120000000000000000000042000500050008863
:1021300000000000000000000004500050005000AB
:102140005000000000000000000004880050005013
:1021500000200000000000000000000404006201F4
:1021600012000C00000000000000000008F0010850
:1021700002F4040A090A09F2090C05F802058001B3
:102180007C0042007C00800100000000000005FE91
:1021900001120112011201EC000000000000000613
:1021A00078008400020102010201CC00000000005E
:1021B00005FE010201020184007800000000000019
:1021C0000005FE01120112011201120100000000BF
:1021D0000000050000FE01120012000200000000D5
:1021E0000000000678008400020122012201EC00B8
:1021F0000000000005FE01100010001000FE0100AC
:10220000000000000001FE010000000000000000CE
:1022100000000000000004C00000010001FE0000FA
:102220000000000000000005FE0110003800C4009E
:10223000020100000000000004FE01000100010096
:1022400001000000000000000007FE010C00F0008B
:102250000001F0000C00FE01000006FE0104001861
:102260000060008000FE010000000006780084008D
:1022700002010201840078000000000005FE012236
:1022800000220022001C0000000000000006780070
:10229000840002018201840078030000000007002E
:1022A00000FE011200320052008C00000100000507
:1022B000CC00120112011201E40000000000000035
:1022C0000502000200FE0102000200000000000002
:1022D00000067E0080000001000180007E000000FA
:1022E0000000050600F8000001F8000600000000EC
:1022F00000000007FE000001FC000200FC000001DD
:10230000FE000000060201CC0030003000CC0002CC
:1023100001000000000502000C00F0010C000200AA
:10232000000000000000058201420132010A01069E
:102330000100000000000002FE070204000000008F
:10234000000000000000000003060078008001008B
:10235000000000000000000000020204FE07000070
:1023600000000000000000000000031C0002001C30
:102370000000000000000000000000050002000254
:10238000000200020002000000000000020200043F
:102390000000000000000000000000000004C80071
:1023A00028012801F001000000000000000004FEE8
:1023B0000190000801F0000000000000000000048F
:1023C000F00008010801900000000000000000007B
:1023D00004F00008019000FE010000000000000071
:1023E0000004F00028012801B000000000000000F7
:1023F000000002FE010A00000000000000000000D2
:1024000000000004F00408059004F8030000000038
:102410000000000004FE0110000800F001000000B0
:10242000000000000001FA010000000000000000B0
:1024300000000000000001FA07000000000000009A
:102440000000000000000004FE0120005000880190
:10245000000000000000000001FE0100000000007C
:1024600000000000000000000007F8011000080054
:10247000F00110000800F801000004F80110000845
:1024800000F001000000000000000004F00008015E
:102490000801F000000000000000000004F80790B0
:1024A000000801F000000000000000000004F0003F
:1024B00008019000F807000000000000000003F889
:1024C00001100008000000000000000000000004EF
:1024D0009800280148019000000000000000000062
:1024E00002FE0108010000000000000000000000E2
:1024F0000004F80000018000F80100000000000066
:102500000000051800E0000001E0001800000000D5
:1025100000000007F8000001F0000800F0000001D2
:10252000F80000000508019000600090000801001C
:10253000000000000005080070048003700008001F
:102540000000000000000488014801280118010073
:102550000000000000000002DE0302040000000092
:10256000000000000000000001FE07000000000065
:10257000000000000000000000030204DE0720004D
:1025800000000000000000000000053000100030D6
:10259000002000100000000000000003FF00810088
:1025A000FF00000000000000000000000102020324
:1025B0000405060708090A0B0C0D0E0F1010000089
:1025C00000000000000001020304060708090000E3
:1025D0000000010203040000F825000800000020AC
:1025E0002000000028010008182600082000002014
:1025F000C80C0000440100080000000000000000BA
:1026000000000000000000000100000010000000B9
:082610000000000000127A0036
:04000005080000ED02
:00000001FF
